:1000000022C03CC0E7C13AC039C038C037C036C092
:1000100035C034C033C032C031C030C02FC0A4C0DE
:10002000A6C0ACC0BBC0A3C0C9C0D8C0E7C01CC17B
:1000300028C110C139C14BC10DC15CC16EC10AC11B
:100040007FC191C1A3C111241FBECFE5D2E0DEBFA5
:10005000CDBF10E0A0E6B0E0E8E9F4E002C0059012
:100060000D92A036B107D9F720E0A0E6B0E001C0BC
:100070001D92A937B207E1F720D00CC2C1CF2EE004
:1000800088E190E00FB6F894A89581BD0FBE21BD20
:1000900085E080936A008093690010926E00109250
:1000A00065008CE08093700091E090936F0097BBA7
:1000B00090E29BBF85BB78940895E1DFA9E6B0E0AC
:1000C000EAE6F0E02AE0A89580916E008130D9F749
:1000D0008091660080936B0010926E0084FD07C0D3
:1000E0009C91992359F09C9191509C9307C09C91AD
:1000F0009F5F9C939C919B3008F02C9385FF08C0D8
:1001000080818F5F808380818B3040F0208306C0A8
:100110008081882319F08081815080838C91853083
:1001200010F0C09A01C0C0988081853010F0C19A4B
:10013000CACFC198C8CF1092770010926100109278
:100140006200109264001092780010927200109277
:1001500071000895E0916300F0E0E830F10508F0E7
:1001600060C0E15FFF4F0994109260000895809194
:100170007500813009F455C0DEDF08958091750067
:10018000882331F08091600088608093600008953A
:1001900080916000877F8093600008958091750052
:1001A000882331F08091600084608093600008951E
:1001B000809160008B7F809360000895809175002E
:1001C000882331F080916000826080936000089500
:1001D000809160008D7F809360000895809175000C
:1001E000882331F0809160008160809360000895E1
:1001F000809160008E7F80936000089580917500EB
:10020000813031F49091600080917000981711F066
:1002100092DF089582E0809362001092770010923E
:100220007800089580917700309160002FE0231BC3
:1002300096E0981B9295907F920F90937400209176
:100240007800E22FF0E0EC30F10508F0C2C0E95E82
:10025000FF4F099480917500813011F06CDF089593
:100260002F5F2093780008951092610080917500AF
:10027000882319F081E08093610081E08093780009
:10028000089580917500882331F08091610082602B
:100290008093610005C0809161008D7F8093610033
:1002A00082E080937800089580917500882331F072
:1002B0008091610084608093610005C0809161003D
:1002C0008B7F8093610084E0809378000895809113
:1002D0007500882331F0809161008860809361000F
:1002E00005C080916100877F8093610085E08093E5
:1002F0007800089580917500882331F08091610025
:1003000080618093610005C0809161008F7E809341
:10031000610087E0809378000895809175008823BC
:1003200031F08091610080628093610005C080910E
:1003300061008F7D8093610088E08093780008954C
:1003400080917500882331F08091610080648093F2
:10035000610005C0809161008F7B809361008AE01D
:1003600080937800089580917500882331F0809102
:10037000610080688093610005C0809161008F7783
:10038000809361008BE08093780008952091750040
:10039000213011F0D0DE0895933539F49091610049
:1003A0009093720091E0909371008F5F809377003B
:1003B000873069F480917100882339F08091720050
:1003C0008093660081E080936E00B5DE0895109200
:1003D000780008951F920F920FB60F9211242F9359
:1003E0003F934F935F936F937F938F939F93AF93BD
:1003F000BF93EF93FF9386B38C70883021F08430E5
:10040000C1F580E001C081E090917300981303C0B2
:100410001092750003C091E0909375008093730073
:10042000809162008130E9F018F0823011F520C02F
:1004300080917500811106C0809164008F5F809368
:10044000640017C080916400833041F481E08093A0
:10045000620010926000109263000BC01092640062
:1004600008C078DE809163008F5F8093630001C0D5
:10047000D9DEFF91EF91BF91AF919F918F917F91C5
:100480006F915F914F913F912F910F900FBE0F9001
:080490001F901895F894FFCFAE
:00000001FF
