:100000001CC036C035C04CC233C032C031C030C055
:100010002FC02EC02DC02CC02BC02AC029C028C084
:1000200027C095C1F2C1D4C1E3C19EC1D1C1A9C14C
:10003000B5C1CEC1C0C17EC15FC111241FBECFE515
:10004000D2E0DEBFCDBF10E0A0E6B0E0E0EDF9E029
:1000500002C005900D92A636B107D9F720E0A6E6BA
:10006000B0E001C01D92A338B207E1F7A2D2AEC43E
:10007000C7CF82E090E0D4D39FEF980F973678F403
:10008000809302008093730081E090E0C9D3809355
:10009000790080E090E0C4D380937800089583E5F0
:1000A0008093020063E582E090E0C2D360E081E0EB
:1000B00090E0BED361E080E090E0BAD3809102008E
:1000C000E1CF9FE088E10FB6F894A89581BD0FBEFF
:1000D00091BD10927A0081E087BB8EE88ABBD89AE6
:1000E0008BB381778BBBC09880E28BBF86E080BDED
:1000F00010927400BEDF85D368E270E01AD36C59A9
:100100007F4F70937C0060937B0078940895C89B28
:1001100003C080E090E008952FEF80E792E0215047
:1001200080409040E1F700C0000089B38095817065
:1001300090E00895883029F150F08032F9F0B0F065
:10014000803489F0803851F467E0862F089582303A
:1001500091F0843029F0813009F460E0862F089511
:1001600062E0862F089566E0862F08958031B1F70A
:1001700064E0862F089561E0862F089565E0862F5C
:10018000089563E0862F0895D99A81E080937400E2
:100190000895CF9310927400D998C09175008FEF95
:1001A0008C0F873610F0CF9108956C2F82E090E08D
:1001B0003FD3C09373008091760060E0BBDF8093F3
:1001C0007900682F81E090E033D38091770061E07F
:1001D000B1DF80937800682F80E090E0CF9128C352
:1001E000809166008F5F883040F010926600C99958
:1001F00002C0D99A0895D998089580936600089509
:1002000080917400813029F0D99A81E08093740044
:100210000895BFCF80917000853099F170F48230DD
:1002200031F18330C1F480917F008823A1F1809166
:100230006D00846080936D000895863071F0873082
:1002400059F482E080936F00109281001092820036
:1002500010926E0008950895089580917F0088237C
:1002600031F180916D00816080936D0008958091DF
:100270007F00882311F180916D00886080936D006C
:10028000089580917F00882361F080916D008260E5
:1002900080936D00089580916D008B7F80936D0039
:1002A000089580916D008D7F80936D0008958091F9
:1002B0006D008E7F80936D00089580916D00877F23
:1002C00080936D0008952091810090916D008FE0E2
:1002D000891B982F86E0821B8295807F890F8093EF
:1002E0007E0090918200492F50E04C30510508F576
:1002F000FA01EF5EFF4F099490917F00992309F472
:100300006EC090917300891709F4B6C0813009F46A
:10031000B8C0823009F4BAC0833009F4BCC02F5F82
:1003200020938100273009F45AC010928200109265
:100330006E00089580917F00811198C080916E00B9
:100340008F7780936E008BE08093820008951092E7
:100350006E0080917F00882319F081E080936E0009
:1003600081E080938200089580917F00811178C0A0
:1003700080916E00877F80936E0085E0809382007D
:10038000089580917F00811165C080916E008F7EFD
:1003900080936E0087E080938200089580917F00B3
:1003A000811152C080916E008F7D80936E0088E035
:1003B00080938200089580917F0081113FC08091D9
:1003C0006E008F7B80936E008AE080938200089598
:1003D0009F5F9093820080917F008111AACF10923D
:1003E000810010926F0010927100109282000895A7
:1003F00080917F0081111CC080916E008B7F809363
:100400006E0084E080938200089580917F008111C6
:1004100009C080916E008D7F80936E0082E0809392
:100420008200089580916E00826080936E00F6CF06
:1004300080916E00846080936E00E3CF80916E00A7
:10044000806480936E00C0CF80916E008062809344
:100450006E00ADCF80916E00806180936E009ACF68
:1004600080916E00886080936E0087CF80916E00CF
:10047000806880936E0067CF80916E0080937A00D1
:100480004ECF80916E008093750049CF80916E00B1
:100490008093760044CF80916E00809377003FCFA9
:1004A0001F920F920FB60F9211242F933F934F93E9
:1004B0005F936F937F938F939F93AF93BF93EF93CC
:1004C000FF9380916B008F5F80936B0080916B0036
:1004D000883C09F43FC086B38670823039F184309D
:1004E00089F0FF91EF91BF91AF919F918F917F9193
:1004F0006F915F914F913F912F910F900FBE0F9091
:100500001F90189580E090917D009817A1F091E0E0
:1005100090937F0080937D0080916F00813099F0EF
:10052000813070F18230E9F6CEDEDBCF81E0909150
:100530007D009813ECCF10927F0080937D00809116
:100540006F00813069F766DE809170008F5F809365
:100550007000C7CF8091670090916800A0916900FA
:10056000B0916A000196A11DB11D80936700909320
:100570006800A0936900B0936A0010926B00ABCF43
:1005800080917F00882339F080917100833049F099
:1005900010927100A6CF809171008F5F80937100DF
:1005A000A0CF81E080936F0010926D0010927000D8
:1005B00098CF87DDA89540916700509168006091C1
:1005C000690070916A0080917B0090917C00092EF7
:1005D000000CAA0BBB0B481759076A077B0710F4DE
:1005E000D99AE8CFC89B63C02FE788E391E02150F8
:1005F00080409040E1F700C00000809174008111BC
:1006000054C0D99880917A0090E00090790002C09F
:10061000959587950A94E2F781709091610089170A
:10062000D1F080936100882309F46DC0DF98C09AEF
:100630002FE78AE196E0215080409040E1F700C02A
:100640000000C0982FE788E391E02150804090405F
:10065000E1F700C0000080917A0090E000907800FF
:1006600002C0959587950A94E2F781709091600099
:10067000891709F49FCF80936000882371F1DA987D
:10068000DB9A2FE78AE196E0215080409040E1F725
:1006900000C00000DB982FE788E391E02150804004
:1006A0009040E1F700C0000085CF9ADD83CF2FEFA7
:1006B00080E792E0215080409040E1F700C00000C8
:1006C000C89992CF9DDD2FE78AE196E021508040C6
:1006D0009040E1F700C0000087CFDA9ADB982FE75F
:1006E0008AE196E0215080409040E1F700C0000090
:1006F000DA982FE788E391E0215080409040E1F7BD
:1007000000C0000057CFDF9AC0982FE78AE196E03B
:10071000215080409040E1F700C00000DF982FE7B3
:1007200088E391E0215080409040E1F700C0000054
:1007300092CF97FB072E16F4009406D077FD08D0D1
:100740000BD007FC05D03EF4909581959F4F0895FE
:10075000709561957F4F0895AA1BBB1B51E107C09F
:10076000AA1FBB1FA617B70710F0A61BB70B881F41
:10077000991F5A95A9F780959095BC01CD010895D0
:10078000A0E0B0E0E5ECF3E0A0C0EC016881798185
:100790008A819B81611571058105910521F464E2CF
:1007A00079ED8BE597E02DE133EF41E050E04ED05D
:1007B00049015A0127EA31E440E050E063D0690181
:1007C0007A01C501B4012CEE34EF4FEF5FEF5AD040
:1007D000022F132F9A01D701C601800F911FA21F6C
:1007E000B31FB7FF03C00197A109B048888399835D
:1007F000AA83BB839F77CDB7DEB7ECE082C0C0DFB2
:10080000089582E690E0BCDF0895A0E0B0E0809318
:10081000620090936300A0936400B0936500089514
:10082000E199FECF9FBB8EBBE09A99278DB30895C7
:10083000262FE199FECF1CBA9FBB8EBB2DBB0FB6F6
:10084000F894E29AE19A0FBE01960895052E97FB5F
:1008500016F400940FD057FD05D068D007FC02D0E5
:1008600046F408C050954095309521953F4F4F4F25
:100870005F4F089590958095709561957F4F8F4F4C
:100880009F4F089568940013E894A0E0B0E0EAE474
:10089000F4E01DC0EFEFE7F959016A015E23550F3F
:1008A000EE08FE2C87019B01AC019E23990F660B7D
:1008B000762FCB015DD0CDB7DEB7EAE024C02F9212
:1008C0003F924F925F926F927F928F929F92AF92E0
:1008D000BF92CF92DF92EF92FF920F931F93CF932D
:1008E000DF93CDB7DEB7CA1BDB0B0FB6F894DEBFC4
:1008F0000FBECDBF09942A88398848885F846E84EA
:100900007D848C849B84AA84B984C884DF80EE8033
:10091000FD800C811B81AA81B981CE0FD11D0FB63C
:10092000F894DEBF0FBECDBFED010895A1E21A2EEF
:10093000AA1BBB1BFD010DC0AA1FBB1FEE1FFF1F83
:10094000A217B307E407F50720F0A21BB30BE40BD3
:10095000F50B661F771F881F991F1A9469F760951A
:100960007095809590959B01AC01BD01CF010895D4
:10097000DF93CF939F92A0E49A2E0024D001E00150
:10098000F00116950795F794E794D794C794B79418
:10099000A79448F41068A20FB31FC41FD51FE61F09
:1009A000F71F081E191E220F331F441F551F661FF5
:1009B000771F881F991F9A9421F79D01AE01BF01EF
:1009C000C00111249F90CF91DF910895F894FFCF3B
:0609D0000202010000001C
:00000001FF
